:020000040800F2
:1000000000000120B92700089D0600089F0600088F
:10001000A1060008A3060008A506000800000000CD
:10002000000000000000000000000000A70600081B
:10003000A906000800000000AB060008AD06000895
:1000400009280008092800080928000809280008CC
:1000500009280008092800080928000809280008BC
:1000600009280008092800080928000809280008AC
:10007000092800080928000809280008092800089C
:10008000092800080928000809280008092800088C
:10009000092800080928000809280008092800087C
:1000A000092800080928000809280008092800086C
:1000B00009280008000000000000000009280008CE
:1000C00009280008000000000000000009280008BE
:1000D00000000000092800080928000800000000AE
:1000E000092800080928000800000000000000009E
:1000F0000000000000000000000000000000000000
:1001000000000000000000000000000009280008B6
:10011000000000000000000009280008092800086D
:1001200009280008092800080928000809280008EB
:100130000928000800000000000000000000000086
:1001400009280008092800080928000809280008CB
:1001500009280008092800080928000809280008BB
:1001600009280008092800080928000800000000E4
:10017000092800080928000800000000000000000D
:1001800009280008092800080928000800000000C4
:10019000034613F8012B002AFBD1181A01387047C7
:1001A00001F0FF01102A2BDB10F0070F08D010F828
:1001B000013B013A8B422DD010F0070F42B3F6D12C
:1001C000F0B441EA012141EA014122F007047FF045
:1001D00000070023F0E80256083C85EA010586EA9C
:1001E000010685FA47F5A3FA87F586FA47F6A5FAD8
:1001F00087F68EB9EED1F0BC01F0FF0102F00702E4
:1002000032B110F8013B013A83EA010313B1F8D18E
:100210000020704701387047002D06BF354603386F
:10022000073815F0010F07D1013015F4807F02BFA8
:10023000013015F4C03F0130F0BC0138704700BFF9
:1002400053B94AB9002908BF00281CBF4FF0FF313D
:100250004FF0FF3000F00CB8ADF1080C6DE904CEA2
:1002600002F03CFFDDF804E0DDE9022304B0704752
:10027000704700BF10B5054C237833B9044B13B158
:100280000448AFF300800123237010BD70000020EC
:10029000000000008833000808B5034B1BB1034978
:1002A0000348AFF3008008BD000000007400002088
:1002B0008833000830B589B0002403940494059471
:1002C00006940794124BDA6C42F00102DA64DA6C9D
:1002D00002F001020192019ADA6C42F00202DA6441
:1002E000DB6C03F002030293029B0A4D22460821B5
:1002F000284601F021FE082303930123049305946B
:10030000069403A9284601F04FFD09B030BD00BF97
:10031000001002400004004808B50948094B03607A
:100320001023436000238360C3600361436103764D
:1003300043768376C3760377437701F0DDFE08BD0D
:100340008C0000200064004038B50D4C0D4B23603C
:1003500040F6146363600025A5600123E360256116
:100360006561A561E5612562204600F004FC29462F
:10037000204600F0DBFD2946204600F005FE38BD92
:10038000B40000200054004008B50948094B036040
:100390004FF4E133436000238360C36003610C22A8
:1003A00042618361C3610362436202F0D4F908BD14
:1003B000000100200044004010B5ACB044220021F0
:1003C0001BA802F047FA0024169417941894199465
:1003D0001A945422214601A802F03CFA10231B93E0
:1003E00001232193602323931BA800F09BFE0F237E
:1003F00016931794189419941A94214616A801F08C
:10040000D1F9422301930A940C9401A801F058FBFE
:100410004FF4007001F0A6FD2CB010BDF0B5AFB0E8
:1004200000F032FAFFF7C8FFFFF744FFFFF774FF51
:10043000FFF78AFFFFF7A8FF4FF47A7000F046FA43
:100440004FF6FF7306228649864802F0E3F86B23D5
:100450008DF8A83000238DF8A9304FF0FF330093BA
:1004600002232AAAD021804800F0E4FB30BB64209C
:1004700000F02CFA7D4B1B88ADF8AC304FF0FF3309
:10048000009302232BAAD021774800F0D3FBE8B9D0
:10049000642000F01BFA754B9B88ADF8B0304FF02C
:1004A000FF33009302232CAAD0216F4800F0C2FB37
:1004B000A0B9642000F00AFA002428E04FF6FF7388
:1004C00007226B49674802F0A5F8D0E74FF6FF73A3
:1004D00007226849634802F09DF8D9E74FF6FF7399
:1004E000072265495F4802F095F8E2E74FF6FF738F
:1004F000032262495B4802F08DF8624204F00F0368
:1005000002F00F0258BF53420F2B1ED001347F2C34
:1005100023DC610089B24FF0FF33009300231A46B9
:10052000514800F087FB0028E0D12246544906A834
:1005300002F098F906A8FFF72BFE4FF6FF7382B280
:1005400006A9484802F066F8D7E74FF6FF73012284
:100550004C49444802F05EF8D8E74FF6FF7310228A
:100560004949404802F056F841F2883000F0AEF9AF
:100570005BE04FF6FF73072244493A4802F04AF81D
:1005800061E04FF6FF7307224149364802F042F816
:100590009DF89820120212B29DF899C09DF89A30E9
:1005A0001B021BB29DF89BE09DF89C10090209B24A
:1005B0009DF89D0001439DF89E00000200B29DF849
:1005C0009F4020439DF8A040240224B29DF8A150F2
:1005D0002C439DF8A2502D022DB29DF8A360354307
:1005E0009DF8A460360236B29DF8A5703E4304968D
:1005F000039502940190009143EA0E0342EA0C0233
:10060000244906A802F02EF906A8FFF7C1FD4FF60F
:10061000FF7382B206A9134801F0FCFF08211E48AF
:1006200001F08FFC642000F051F93B238DF8B430C9
:100630004FF0FF33009301232DAAD0210A4800F088
:10064000F9FA002895D14FF0FF3300930E2326AA24
:10065000D021054800F0ACFB002892D198E700BFFC
:10066000A833000800010020B4000020A0330008D7
:10067000B0330008B8330008C0330008D033000896
:10068000C8330008D4330008D8330008EC3300081E
:10069000F4330008FC330008000400487047FEE70C
:1006A000FEE7FEE7FEE770477047704708B500F0C9
:1006B000FBF808BD82B00A4B1A6E42F001021A66BE
:1006C0001A6E02F001020092009A9A6D42F0805276
:1006D0009A659B6D03F080530193019B02B07047B4
:1006E0000010024000B589B00023039304930593E2
:1006F000069307930268144B9A4202D009B05DF842
:1007000004FB03F5D6339A6D42F000729A659A6D38
:1007100002F000720192019ADA6C42F00102DA648E
:10072000DB6C03F001030293029B4FF4C05303936D
:1007300002230493032306930923079303A94FF08D
:10074000904001F031FBD9E70064004010B588B05B
:100750000023039304930593069307930268144BB5
:100760009A4201D008B010BD124CE36C43F0010373
:10077000E364E36C03F001030193019B4FF4C06356
:100780000393122304930123059303230693042365
:10079000079303A94FF0904001F006FBA36D43F4CB
:1007A0000013A365A36D03F400130293029BD9E722
:1007B000005400400010024030B589B0002303937C
:1007C000049305930693079302681A4B9A4201D04B
:1007D00009B030BD03F5E6339A6D42F400329A65F4
:1007E0009A6D02F400320192019ADA6C42F0010231
:1007F000DA64DB6C03F001030293029B042303938E
:1008000002250495032406940723079303A94FF0B8
:10081000904001F0C9FA4FF400430393049500237C
:1008200005930694079403A94FF0904001F0BCFA99
:10083000CEE700BF00440040104B1B780BB90120ED
:10084000704710B504464FF47A70B0FBF3F30C4ACE
:100850001068B0FBF3F001F017FC68B90F2C01D958
:1008600001200AE0002221464FF0FF3001F0D4FBC6
:10087000044B1C60002000E0012010BD000000209F
:10088000080000200400002010B5032001F0B2FB96
:100890000020FFF7D1FF10B10124204610BD04460F
:1008A000FFF708FFF9E70000034B1B78034A1168C4
:1008B0000B441360704700BF00000020800100203F
:1008C000014B1868704700BF8001002038B504460E
:1008D000FFF7F6FF0546B4F1FF3F02D0044B1B784B
:1008E0001C44FFF7EDFF401BA042FAD338BD00BF08
:1008F0000000002003689A6912F0020F01D0002264
:100900009A6203689A6912F0010F03D19A6942F062
:1009100001029A61704730B4029D046860684FEA32
:10092000555C0CF4806C4CF07F7C4CF4583C4CF4DF
:100930007F7C4CF0030C20EA0C00C1F3090141EA72
:100940000241194329430143616030BC7047F8B547
:1009500005460E46174603689B6913F0100F01D138
:100960000020F8BD2B689C6914F0200F17D1B6F158
:10097000FF3FF7D0FFF7A4FFC01BB04201D8002E05
:10098000F0D16B6C43F020036B64202385F8413079
:10099000002385F8423085F840300120E1E710223D
:1009A000DA612B682024DC612846FFF7A3FF2A6860
:1009B000536823F0FF7323F48B3323F4FF7323F086
:1009C000010353606B6C43F004036B6485F8414092
:1009D000002385F8423085F840300120C1E770B52A
:1009E00004460D46164623689B6913F0020F1DD17D
:1009F000324629462046FFF7AAFFC8B9B5F1FF3FA6
:100A0000F1D0FFF75DFF801BA84201D8002DEAD18D
:100A1000636C43F020036364202384F84130002397
:100A200084F8423084F84030012000E0002070BD9E
:100A30000120FCE72DE9F0410646884617461D4691
:100A40003468A46938EA04030CBF4FF0010C4FF07E
:100A5000000CBC4518D1B5F1FF3FF1D0FFF730FFD6
:100A6000069BC01AA84201D8002DE9D1736C43F04F
:100A700020037364202386F84130002386F8423037
:100A800086F84030012000E00020BDE8F08170B51C
:100A900005460C4616462B689B6913F0200F1AD1A9
:100AA000324621462846FFF752FFB0B9FFF708FF4C
:100AB000801BA04201D8002CEDD16B6C43F02003C9
:100AC0006B64202385F84130002385F8423085F897
:100AD0004030012070BD0020FCE70120FAE770B52E
:100AE00004460D46164623689B6913F0040F3ED159
:100AF000324629462046FFF72AFF0146002838D112
:100B000023689A6912F0200F13D1FFF7D9FE801BDA
:100B1000A84201D8002DE6D1636C43F02003636442
:100B2000202384F84130002384F840300121084616
:100B300070BD9A6912F0040F02D0228D002AF6D1FE
:100B40002022DA6121684B6823F0FF7323F48B3392
:100B500023F4FF7323F001034B600023636484F8E4
:100B6000412084F8423084F840300121DFE7002141
:100B7000DDE70121DBE7002859D010B5044690F8E5
:100B80004130002B43D0242384F84130226813687D
:100B900023F0010313606368226823F0706313611C
:100BA0002268936823F400439360E368012B33D0F9
:100BB000A368226843F404439360E368022B31D0B6
:100BC0002268536843F0007343F400435360226883
:100BD000D36823F40043D360236962691343A16996
:100BE000226843EA0123D360E369216A22680B4348
:100BF00013602268136843F00103136000206064EF
:100C0000202384F84130206384F8420010BD80F82E
:100C10004030FFF79BFDB6E7A368226843F400432A
:100C20009360CAE723684FF400625A60C8E7012066
:100C3000704700002DE9F04782B00F460A9E90F8F9
:100C40004110C9B2202940F0A3800446904699463D
:100C500090F84030012B00F09F804FF0010A80F89F
:100C600040A0FFF72DFE05460090192352464FF491
:100C700000412046FFF7DEFE002840F08F80212350
:100C800084F84130102384F8423000236364C4F8B0
:100C90002480A4F82A906363638D9BB2FF2B0AD94A
:100CA000FF222285414B00934FF080733946204646
:100CB000FFF731FE18E0628D92B222853B4B009324
:100CC0004FF00073D2B239462046FFF724FE0BE006
:100CD000628D92B22285002300934FF00073D2B24E
:100CE00039462046FFF717FE638D9BB2002B33D0A9
:100CF0002A4631462046FFF772FE002850D1626A2C
:100D0000236812789A62636A01336362638D9BB2CF
:100D1000013B9BB26385238D013B9BB22385628D92
:100D200092B2002AE0D0002BDED10095334600229B
:100D300080212046FFF77EFEA0BB638D9BB2FF2B78
:100D4000C6D9FF222285002300934FF080733946D5
:100D50002046FFF7E0FDC7E72A4631462046FFF769
:100D600096FE08BB23682022DA6121684B6823F0D5
:100D7000FF7323F48B3323F4FF7323F001034B60E1
:100D800084F84120002384F8423084F8403000E0A9
:100D9000022002B0BDE8F0870220FAE70120F8E760
:100DA0000120F6E70120F4E70120F2E700200080AF
:100DB0002DE9F04782B00F460A9E90F84110C9B263
:100DC000202940F0A28004469046994690F8403091
:100DD000012B00F09E804FF0010A80F840A0FFF741
:100DE0006FFD05460090192352464FF400412046FE
:100DF000FFF720FE002840F08E80222384F8413047
:100E0000102384F8423000236364C4F82480A4F8DB
:100E10002A906363638D9BB2FF2B0AD9FF22228540
:100E2000414B00934FF0807339462046FFF773FD26
:100E300018E0628D92B222853B4B00934FF0007315
:100E4000D2B239462046FFF766FD0BE0628D92B2C2
:100E50002285002300934FF00073D2B2394620461A
:100E6000FFF759FD638D9BB2002B32D02A463146E5
:100E70002046FFF734FE00284FD123685A6A636A80
:100E80001A70636A01336362228D013A92B222853D
:100E9000638D9BB2013B9BB26385638D9BB2002B3C
:100EA000E0D0002ADED10095334680212046FFF7AE
:100EB000C1FDA0BB638D9BB2FF2BC7D9FF2222854A
:100EC000002300934FF0807339462046FFF723FD3F
:100ED000C8E72A4631462046FFF7D9FD08BB2368FC
:100EE0002022DA6121684B6823F0FF7323F48B33EF
:100EF00023F4FF7323F001034B6084F841200023A7
:100F000084F8423084F8403000E0022002B0BDE8AE
:100F1000F0870220FAE70120F8E70120F6E7012038
:100F2000F4E70120F2E700BF0024008090F8413090
:100F3000DBB2202B24D190F84030012B22D00123AA
:100F400080F84030242380F841300268136823F091
:100F5000010313600268136823F48053136002686E
:100F60001368194311600268136843F001031360AA
:100F7000202380F84130002380F840301846704725
:100F8000022070470220704790F84130DBB2202BDE
:100F900022D190F84030012B20D0012380F840303E
:100FA000242380F841300268136823F001031360A2
:100FB0000268136823F4706343EA01211160026838
:100FC000136843F001031360202380F841300023AD
:100FD00080F8403018467047022070470220704762
:100FE00030B583B00446204B9B6D13F0805F0BD06F
:100FF00000F0B0FFB0F5007F17D0802C1FD82DD0A7
:10100000702C2DD000211BE0174DAB6D43F08053A9
:10101000AB65AB6D03F080530193019B00F09AFF29
:10102000AB6D23F08053AB65E4E7802C03D9A02C93
:1010300003D9022104E0002102E0012100E00321A4
:101040000A4A136823F007030B431360136803F085
:1010500007038B4206D1002003B030BD0221EFE729
:101060000121EDE70120F7E70010024000200240D7
:10107000284A9368D26802F0030213F00C030AD0E6
:101080000C2B06D0042B1FD0082B20D000200246AA
:1010900010E0012AF6D11F4A126812F0080F0CD195
:1010A0001C4AD2F89420C2F303221B4951F8222093
:1010B00043B100200C2B0DD07047164A1268C2F3C2
:1010C0000312F2E71046F5E714480022F2E714484D
:1010D0000022EFE70F4BDB6803F00303022B16D06F
:1010E000032B00D10E4A0B49C868C0F30210431C01
:1010F000C868C0F3062002FB00F0B0FBF3F0CB6839
:10110000C3F3416301335B00B0FBF3F0D4E7034A60
:10111000E9E700BF00100240443400080024F40056
:1011200000127A00002800F02783F0B583B004464F
:10113000964B9D6805F00C05DE6806F00306036813
:1011400013F0100F5AD0E5B10C2D18D0A369002B65
:1011500000F0BB808D4A136843F001031360FFF772
:10116000AFFB0746894B1B6813F0020F40F09A80D3
:10117000FFF7A6FBC01B0228F4D9032007E3012ECA
:10118000E4D1824B1B6813F0020F03D0A369002B3C
:1011900000F0F482206A7D4B1B6813F0080F5BD0CF
:1011A0007A4B1B6803F0F00398425CD8774B1A68BF
:1011B00042F008021A601A6822F0F002216A0A431B
:1011C0001A605A6822F47F42E16942EA01225A60B9
:1011D000002D60D0FFF74CFF6C4B9B68C3F30313EB
:1011E0006B4AD35C03F01F03D8406A4B18606A4B0C
:1011F0001868FFF721FB002840F0C982236813F02C
:10120000010F00F08180082D75D00C2D71D063681E
:10121000B3F5803F00F09780B3F5A02F00F09980E0
:101220005A4B1A6822F480321A601A6822F480221B
:101230001A606368002B00F09980FFF741FB0746B6
:10124000524B1B6813F4003F5ED1FFF739FBC01B04
:101250006428F5D903209AE24C4BD3F894301B094B
:1012600003F0F003A0E7FFF7BBFE002840F0888200
:10127000464B1A6842F008021A601A6822F0F0021F
:10128000216A0A431A605A6822F47F42E16942EAFD
:1012900001225A609EE7206AFFF7A2FE002899D03B
:1012A000012074E2394B1A6842F008021A601A6889
:1012B00022F0F002216A0A431A605A6822F47F423F
:1012C000E16942EA01225A6098E7304A136823F044
:1012D00001031360FFF7F4FA07462C4B1B6813F069
:1012E000020F8BD0FFF7ECFAC01B0228F5D90320C0
:1012F0004DE2032E8BD1254B1B6813F4003F03D026
:101300006368002B00F03E82236813F0020F58D070
:10131000042D45D00C2D41D0E368002B77D01B4A1B
:10132000136843F480731360FFF7CAFA0646174B3D
:101330001B6813F4806F61D1FFF7C2FA801B02288B
:10134000F5D9032023E2114A136843F48033136074
:101350006FE703F18043A3F53C331A6842F480221F
:101360001A601A6842F480321A6062E7FFF7A8FA3E
:101370000746064B1B6813F4003FC5D0FFF7A0FAE1
:10138000C01B6428F5D9032001E200BF0010024011
:101390002C3400080800002004000020022EBBD1DD
:1013A000AC4B1B6813F4806F03D0E368002B00F094
:1013B000EB81A84A536823F0FE43216943EA0163A5
:1013C0005360236813F0080F4CD063699BB3A14AA4
:1013D000D2F8943043F00103C2F89430FFF770FA6A
:1013E00006469C4BD3F8943013F0020F3AD1FFF726
:1013F00067FA801B0228F4D90320C8E1954A536894
:1014000023F0FE43216943EA01635360D9E7914A1F
:10141000136823F480731360FFF752FA06468D4B6E
:101420001B6813F4806FCCD0FFF74AFA801B0228A8
:10143000F5D90320ABE1874AD2F8943023F00103B9
:10144000C2F89430FFF73CFA0646824BD3F894304A
:1014500013F0020F06D0FFF733FA801B0228F4D9ED
:10146000032094E1236813F0040F7AD0794B9B6D2D
:1014700013F0805F36D1774B9A6D42F080529A65B7
:101480009B6D03F080530193019B0126724B1B68F7
:1014900013F4807F28D0A368012B39D0052B3FD0CF
:1014A0006C4BD3F8902022F00102C3F89020D3F8BF
:1014B000902022F00402C3F89020A368002B3DD0B6
:1014C000FFF7FEF90746634BD3F8903013F0020F95
:1014D00046D1FFF7F5F9C01B41F288339842F2D9A3
:1014E000032054E10026D1E75B4A136843F480737C
:1014F0001360FFF7E5F90746574B1B6813F4807F2D
:10150000C9D1FFF7DDF9C01B0228F5D903203EE160
:10151000504AD2F8903043F00103C2F89030CCE743
:101520004C4BD3F8902042F00402C3F89020D3F83B
:10153000902042F00102C3F89020BEE7FFF7C0F907
:101540000746444BD3F8903013F0020F08D0FFF752
:10155000B7F9C01B41F288339842F2D9032016E153
:10156000E6B9236813F0200F35D0636AE3B1394A36
:10157000D2F8983043F00103C2F89830FFF7A0F991
:101580000646344BD3F8983013F0020F23D1FFF7FF
:1015900097F9801B0228F4D90320F8E02D4A936DB7
:1015A00023F080539365DCE72A4AD2F8983023F081
:1015B0000103C2F89830FFF783F90646254BD3F8AC
:1015C000983013F0020F06D0FFF77AF9801B02283B
:1015D000F4D90320DBE0A36A002B00F0D780022BB4
:1015E00027D00C2D00F0D7801A4B1A6822F0807299
:1015F0001A601B6813F0006F04D1164AD36823F0F9
:101600000303D360134AD36823F0887323F4803331
:10161000D360FFF755F904460E4B1B6813F0007FAB
:1016200000F0A880FFF74CF9001B0228F4D9032032
:10163000ADE0084BDB6803F00301E26A91420DD094
:101640000C2D00F0A680034B1B6813F0806F2FD089
:1016500001209CE0001002400070004003F0700286
:10166000216B0139B2EB011FEAD103F4FE42616B39
:10167000B2EB012FE4D103F07842A16BB2EBC16F62
:10168000DED103F4C001E26B5208013AB1EB425FD4
:10169000D6D103F0C063226C5208013AB3EB426F1B
:1016A000CED13E4B1B6813F0007F49D000206EE086
:1016B0003A4A136823F080731360FFF701F9054677
:1016C000364B1B6813F0007F06D0FFF7F9F8401B7C
:1016D0000228F5D903205AE0304AD368304919402E
:1016E000E36A206B013843EA0013606B43EA00238E
:1016F000E06B4008013843EA4053206C4008013851
:1017000043EA4063A06B43EAC0630B43D3601368B2
:1017100043F080731360D36843F08073D360FFF7A6
:10172000CFF804461D4B1B6813F0007F06D1FFF76E
:10173000C7F8001B0228F5D9032028E0002026E086
:10174000164B1A6842F080721A60DA6842F08072B2
:10175000DA60FFF7B5F80446104B1B6813F0007F02
:1017600006D1FFF7ADF8031B022BF5D903200EE0DD
:1017700000200CE000200AE001207047012006E074
:10178000012004E0012002E0012000E0002003B07D
:10179000F0BD0120FBE70120F9E700BF0010024087
:1017A0008C809D01002800F0988070B50C4605469D
:1017B0004E4B1B6803F007038B420BD24B4A136856
:1017C00023F007030B431360136803F007038B42F6
:1017D00040F085802B6813F0010F39D06B68032B24
:1017E00009D0022B26D063BB414A126812F0020FC7
:1017F00006D1012070E03E4A126812F0007F70D0DE
:101800003B498A6822F0030213438B60FFF758F8C4
:101810000646374B9B6803F00C036A68B3EB820FF4
:1018200016D0FFF74DF8801B41F288339842F0D96B
:10183000032051E02E4A126812F4003FE0D101204B
:101840004AE02B4A126812F4806FD9D1012043E09C
:101850002B6813F0020F06D0254A936823F0F0039B
:10186000A9680B439360214B1B6803F00703A34255
:101870000AD91E4A136823F0070323431360136831
:1018800003F00703A3422ED12B6813F0040F06D0F8
:10189000174A936823F4E063E9680B4393602B686D
:1018A00013F0080F07D0124A936823F46053296994
:1018B00043EAC1039360FFF7DBFB0D4B9B68C3F367
:1018C00003130C4AD35C03F01F03D8400A4B186083
:1018D0000A4B1868FEF7B0FF70BD01207047012069
:1018E000FAE70120F8E70120F6E700BF00200240F8
:1018F000001002402C3400080800002004000020E2
:10190000014B1868704700BF0800002008B5FFF7BA
:10191000F7FF054B9B68C3F30223044AD35C03F033
:101920001F03D84008BD00BF001002403C3400082F
:1019300008B5FFF7E5FF054B9B68C3F3C223044AD4
:10194000D35C03F01F03D84008BD00BF0010024065
:101950003C340008F8B504460F46584BDB6813F0DA
:10196000030F18D0554BDB6803F003030268934262
:1019700002D001252846F8BD002A00F09D804F4B7B
:10198000DB68C3F3021301334268934201D001259F
:10199000F0E7002509E00368022B56D0032B5BD04B
:1019A000012B41D00125002DE4D1444A136823F0D6
:1019B00080631360FEF784FF0646404B1B6813F0FC
:1019C000006F05D0FEF77CFF831B022BF5D90325A2
:1019D000002DCFD1002F4DD138490B6923F078432A
:1019E00023F4FE43A068E268D20642EA00221343D1
:1019F0000B61324A136843F080631360FEF760FFA7
:101A000006462E4B1B6813F0006F05D1FEF758FFFA
:101A1000831B022BF5D90325002DABD1274A13696F
:101A2000A1690B431361A5E7244A126812F0020F63
:101A30001ED02248C26822F073026168013943EA6D
:101A400001131343C3600025ADE71C4A126812F46A
:101A5000806FEED10125A6E7184A126812F4003F04
:101A6000E7D1164A126812F4802FE2D101259AE7D5
:101A7000012598E7012F0FD01048026922F0C062BB
:101A800022F4FE42A16863695B08013B5B0643EAFE
:101A9000012313430361ACE70848026922F4C00242
:101AA00022F4FE42A16823695B08013B5B0543EA1F
:101AB0000123134303619CE701255BE7001002400B
:101AC0002DE9F04182B00446036813F4006F25D07D
:101AD000C36BB3F5000F06D0B3F5400F12D04BB176
:101AE000012637461CE0AE4AD36843F48033D36006
:101AF000002708E000210430FFF72CFF074610B153
:101B000006460DE00027A64AD2F8883023F44003A9
:101B1000E16B0B43C2F88830002601E0002637460F
:101B2000236813F4003F6BD09D4B9B6D13F0805FD7
:101B30004CD19B4B9A6D42F080529A659B6D03F09D
:101B400080530193019B4FF00108964A136843F4B8
:101B500080731360FEF7B4FE0546924B1B6813F4C6
:101B6000807F05D1FEF7ACFE401B0228F5D9032784
:101B7000002F40D18A4BD3F8903013F4407315D026
:101B8000226D9A4212D0864AD2F8903023F44073E4
:101B9000D2F8901041F48031C2F89010D2F8901031
:101BA00021F48031C2F89010C2F8903013F0010F88
:101BB0000FD1002F40F0C980794AD2F8903023F439
:101BC0004073216D0B43C2F8903015E04FF00008D0
:101BD000BBE7FEF775FE0546714BD3F8903013F066
:101BE000020FE6D1FEF76CFE401B41F288339842AB
:101BF000F2D90327DDE73E46B8F1000F40F0A78099
:101C0000236813F0010F08D0654AD2F8883023F01A
:101C10000303216A0B43C2F88830236813F0020FD4
:101C200008D05F4AD2F8883023F00C03616A0B4376
:101C3000C2F88830236813F0200F08D0584AD2F831
:101C4000883023F44063A16A0B43C2F888302368CC
:101C500013F4007F08D0524AD2F8883023F440238E
:101C6000616B0B43C2F88830236813F4806F08D08F
:101C70004B4AD2F8883023F44013A16B0B43C2F8CF
:101C80008830236813F0400F08D0454AD2F88830D6
:101C900023F44053E16A0B43C2F88830236813F4FD
:101CA000807F08D03E4AD2F8883023F44033216B3D
:101CB0000B43C2F88830236813F4005F0FD0384A12
:101CC000D2F8883023F04063216C0B43C2F888308F
:101CD000236CB3F1006F40D0B3F1806F42D0236822
:101CE00013F4802F0FD02E4AD2F8883023F04063AF
:101CF000616C0B43C2F88830636CB3F1006F39D06C
:101D0000B3F1806F3BD0236813F4804F0CD0244A8A
:101D1000D2F8883023F04053A16C0B43C2F88830CE
:101D2000A36CB3F1805F32D0236813F4004F08D066
:101D30001B4AD2F8883023F08043E16C0B43C2F891
:101D40008830304602B0BDE8F0813E4654E7144A80
:101D5000936D23F08053936552E7D36843F4801367
:101D6000D360BCE70121201DFFF7F4FD0028B6D0A9
:101D70000646B4E7D36843F48013D360C3E7012178
:101D8000201DFFF7E7FD0028BDD00646BBE7022176
:101D9000201DFFF7DFFD0028C6D00646C4E700BFC0
:101DA0000010024000700040F0B583B000239CE0BA
:101DB00085685E000324B44025EA0405CC68B4407D
:101DC0002C438460446824EA0C0C4C68C4F300146F
:101DD0009C4044EA0C044460C6684FEA430C032567
:101DE00005FA0CF5EC4326EA050E8D6805FA0CF5AC
:101DF00045EA0E05C5604D68022D01D0122D12D1A5
:101E0000DE08083650F8267003F007054FEA850E05
:101E10000F2505FA0EF527EA05070D6905FA0EF5F7
:101E20003D4340F82650056825404C6804F0030403
:101E300004FA0CF42C4304604C6814F0805F53D017
:101E4000394C256E45F001052566246E04F0010429
:101E50000194019C9D08AE1C344C54F8267003F08C
:101E60000304A6000F24B44027EA0407B0F1904F02
:101E700054D02F4CA04253D004F58064A0424BD0E4
:101E80000724B4403C430235284E46F82540294CEF
:101E90002568D44325EA02064F6817F4803F01D035
:101EA00042EA0506234D2E606D6804EA05064F6878
:101EB00017F4003F01D042EA05061E4D6E60AD6882
:101EC00004EA05064F6817F4801F01D042EA0506B0
:101ED000184DAE60ED682C404E6816F4001F01D01E
:101EE00042EA0504134AD46001330A6832FA03F463
:101EF00018D04FF0010C0CFA03FC1CEA0202F3D0DC
:101F00004C68651E012D7FF653AF112C3FF450AF86
:101F1000122C7FF461AF4BE70224B2E70024B0E754
:101F20000124AEE703B0F0BD001002400000014004
:101F300000040048000401400AB1816170478162D9
:101F40007047436901EA030221EA030141EA0241C1
:101F500081617047024B186800F4C060704700BF91
:101F600000700040B0F5007F0FD01F4B1B6803F4DA
:101F7000C063B3F5806F34D01B4A136823F4C06389
:101F800043F48063136000207047174B1B6803F411
:101F9000C063B3F5007F20D0134A136823F4C063F5
:101FA00043F400731360114B1B68322202FB03F3EE
:101FB0000F4AA2FB03239B0C013300E0013B0A4ABA
:101FC000526912F4806F01D0002BF7D1064B5B6988
:101FD00013F4806F03D10020704700207047032066
:101FE00070470020704700BF0070004008000020CC
:101FF00083DE1B43074AD36823F4E0631B041B0CF6
:10200000000200F4E060034343F0BF6343F4003395
:10201000D360704700ED00E000B5194BDB68C3F3F7
:102020000223C3F1070CBCF1040F28BF4FF0040CCE
:1020300003F1040EBEF1060F18D9033B4FF0FF3E2B
:102040000EFA0CFC21EA0C0199400EFA03F322EA85
:102050000303194300280BDB0901C9B200F16040FA
:1020600000F5614080F800135DF804FB0023E5E70C
:1020700000F00F000901C9B2024B1954F4E700BF88
:1020800000ED00E014ED00E00138B0F1807F0BD2EC
:102090004FF0E0235861054AF02182F82310002018
:1020A000986107221A6170470120704700ED00E037
:1020B0000F49D1F8883043F47003C1F888300D4BD4
:1020C0001A6842F001021A60002098601A6822F033
:1020D000A85222F410221A604FF48052DA601A6873
:1020E00022F480221A6098614FF000638B60704781
:1020F00000ED00E000100240002800F0A18038B59B
:10210000044690F82030D3B12268136823F002030C
:102110001360FEF7D5FB054623685A6812F0020FDC
:1021200010D0FEF7CDFB401B0A28F5D9636A43F4B3
:1021300000336362052384F82030012038BDFEF7A8
:10214000D1FAE1E71A6842F001021A60FEF7B8FB23
:10215000054623685A6812F0010F0DD1FEF7B0FB57
:10216000401B0A28F5D9636A43F4003363620523F0
:1021700084F820300120E1E7227E012A3DD01A6850
:1021800022F080021A60637E012B3BD02268136824
:1021900023F040031360A37E012B39D0226813681B
:1021A00023F020031360E37E012B37D022681368ED
:1021B00043F010031360237F012B35D0226813688E
:1021C00023F008031360637F012B33D02268136868
:1021D00023F004031360A368E268134322691343E6
:1021E000626913436268013A21681343CB6100209E
:1021F0006062012384F82030A0E71A6842F0800270
:102200001A60C0E72268136843F040031360C2E716
:102210002268136843F020031360C4E72268136840
:1022200023F010031360C6E72268136843F0080325
:102230001360C8E72268136843F004031360CAE719
:102240000120704710B50446016883680269134392
:1022500042691343C269134308688C4A024013431E
:102260000B602268536823F44053E1680B435360CA
:10227000A1692268864B9A4201D0236A1943936868
:1022800023F430630B4393602368824A93421CD04B
:10229000814A93422DD07E4A934243D010227C49FA
:1022A0008B4260D0E069B0F5004F00F08C80082AC6
:1022B00000F2E580DFE812F0B400CA00B200E300EB
:1022C000CD00E300E300E300D00002F55842D2F86D
:1022D000882002F00302032A09D8DFE802F0020492
:1022E00038060122DBE70422D9E70822D7E71022CB
:1022F000D5E702F5E632D2F8882002F00C020C2A6B
:102300000ED8DFE802F0070D0D0D090D0D0D260D9D
:102310000D0D0B000022C2E70422C0E70822BEE731
:102320001022BCE702F5C832D2F8882002F44062DD
:10233000B2F5006F0FD005D87AB1B2F5806F0ED12B
:102340000422ACE7B2F5406F0BD10822A7E70222C6
:10235000A5E70222A3E70222A1E700229FE71022BD
:102360009DE710229BE7082A79D8DFE802F0087879
:102370002A782778787805004FF4004003E0FFF7CB
:10238000C5FA00286DD0626802EB420383426AD826
:10239000B0EB023F69D8010E00025308C0184FF09D
:1023A000000341F10001FDF74BFFA0F540723B4BEC
:1023B0009A425CD82368D860002043E0FEF758FEBC
:1023C000DFE73748DFE7082A53D8DFE802F00721C4
:1023D0000552245252520B00314803E0FFF796FA9F
:1023E000002848D06268530803EB4000B0FBF2F0CD
:1023F00080B2A0F110024FF6EF739A423DD820F060
:102400000F03C0F3420018432368D860002019E08E
:10241000FFF78EFAE4E7FEF72BFEE1E7204802E043
:10242000FFF774FA68B3636800EB5300B0FBF3F096
:1024300080B2A0F110024FF6EF739A4223D82368BE
:10244000D860002000232366636610BDFFF770FA92
:10245000E8E7FEF70DFEE5E74FF40040E3E7012073
:10246000F0E70020EEE70120ECE70120EAE7012099
:10247000E8E70120E6E70020E4E70120E2E70120A9
:10248000E0E70020DEE70120DCE700BFF369FFEFB3
:10249000008000400038014000440040FFFC0F0075
:1024A0000024F400436A13F0010F06D00268536859
:1024B00023F40033816A0B435360436A13F0020F25
:1024C00006D00268536823F48033C16A0B4353601B
:1024D000436A13F0040F06D00268536823F4802384
:1024E000016B0B435360436A13F0080F06D0026878
:1024F000536823F40043416B0B435360436A13F06A
:10250000100F06D00268936823F48053816B0B434D
:102510009360436A13F0200F06D00268936823F497
:102520000053C16B0B439360436A13F0400F0AD012
:102530000268536823F48013016C0B435360036CEF
:10254000B3F5801F0BD0436A13F0800F06D00268EA
:10255000536823F40023816C0B4353607047026877
:10256000536823F4C003416C0B435360EBE72DE940
:10257000F84305460F4616469946DDF820802C683C
:10258000E46937EA04030CBF4FF0010C4FF0000C74
:10259000B4453CD1B8F1FF3FF1D0FEF791F9A0EB83
:1025A0000900404521D8B8F1000F1ED02B681A68E9
:1025B00012F0040FE3D0DA6912F4006FDFD04FF4A9
:1025C00000621A622A68136823F4D07313602A68C1
:1025D000936823F00103936020236B67AB67EB677D
:1025E000002385F87030032012E02A68136823F472
:1025F000D07313602A68936823F00103936020234B
:102600006B67AB67002385F87030032000E0002083
:10261000BDE8F8832DE9F04182B01E46436F202BC0
:1026200055D104460D469046002954D0002A54D076
:1026300090F87030012B52D0012380F870300023C5
:10264000C36721234367FEF73BF90746A4F8508090
:10265000A4F85280A368B3F5805F05D04FF000085E
:10266000002384F8703014E0236913B14FF00008A0
:10267000F6E7A8460025F3E738F8023B2268C3F3E3
:1026800008031385B4F8522092B2013A92B2A4F82A
:102690005220B4F852309BB273B100963B460022F0
:1026A00080212046FFF763FFD8B9002DE4D02368CE
:1026B00015F8012B1A85E5E700963B4600224021DC
:1026C0002046FFF754FF70B92023636700E0022023
:1026D00002B0BDE8F0810120FAE70120F8E702200E
:1026E000F6E70320F4E70320F2E730B583B00446B1
:1026F0000023C367FEF7E4F805462268126812F06B
:10270000080F0CD123681B6813F0040F15D1202388
:102710006367A367002084F8700003B030BD6FF0DA
:102720007E430093034600224FF400112046FFF73A
:102730001EFF0028E6D00320EFE76FF07E430093F2
:102740002B4600224FF480012046FFF710FF00289F
:10275000DDD00320E1E768B310B50446436F03B34F
:10276000242363672268136823F001031360204663
:10277000FFF768FD012813D0636ABBB9226853686C
:1027800023F4904353602268936823F02A039360F4
:102790002268136843F0010313602046FFF7A5FF8A
:1027A00010BD80F87030FEF707F8D9E72046FFF734
:1027B00079FEE3E701207047DFF834D0FFF778FCBB
:1027C000002103E00B4B5B58435004310A480B4B8C
:1027D00042189A42F6D30A4A02E0002342F8043B28
:1027E000084B9A42F9D300F011F8FDF717FEFEE707
:1027F00000000120C034000800000020700000200C
:1028000070000020A0010020FEE7000070B50D4D13
:102810000D4C641BA4100026A64209D10B4D0C4C94
:1028200000F0B2FD641BA4100026A64205D170BDC5
:1028300055F8043B98470136EEE755F8043B9847B6
:102840000136F2E7B0340008B0340008B0340008B4
:10285000B434000802440346934200D1704703F8A1
:10286000011BF9E70EB400B59CB01DAB02900690B9
:102870006FF00041094807910491094953F8042B6E
:1028800005910068019302A900F06AF8029B0022FA
:102890001A701CB05DF804EB03B070470C00002008
:1028A0000802FFFF704770472DE9F0478E689E428F
:1028B00082460C4690461F4638D88A8912F4906F9B
:1028C00032D025680969A5EB0109656905EB450565
:1028D00005EBD57501334B446D109D4238BF1D4645
:1028E000530531D5294600F047FB064650B90C2365
:1028F000CAF80030A38943F04003A3814FF0FF30B2
:10290000BDE8F08721694A4600F0BEFAA38923F4A6
:10291000906343F08003A381266165614E44A5EB7B
:1029200009052660A5603E46BE4200D93E463246B5
:102930002068414600F0B6FAA36822689B1B324427
:10294000A36022600020DBE72A4600F06FFB06460A
:102950000028E1D12169504600F0BEFAC7E7000027
:102960002DE9F04F98468B891B069DB007460D4612
:1029700014460ED50B6963B9402100F0FDFA2860BA
:10298000286120B90C233B604FF0FF30D1E0402399
:102990006B610023099320238DF82930CDF80C803A
:1029A0003023DFF8A8818DF82A304FF00109234643
:1029B0009A4613F8012B0AB1252AF9D1BAEB040B78
:1029C0000BD05B46224629463846FFF76DFF0130A3
:1029D00000F0AA80099A5A4409929AF80030002B14
:1029E00000F0A28000234FF0FF32CDE905230AF169
:1029F000010A049307938DF853301A935446052225
:102A000014F8011B5148FDF7CBFB049AD8B9D00646
:102A100044BF20238DF85330110744BF2B238DF87A
:102A200053309AF800302A2B15D0079A54460020CC
:102A30004FF00A0C214611F8013B303B092B4ED9CF
:102A4000B0B1079214E0A0EB080309FA03F31343B3
:102A50000493A246D2E7039B191D1B680391002B28
:102A6000BBBF5B4242F0020207930793B8BF0492D8
:102A700023782E2B0CD163782A2B35D1039B1A1D7A
:102A80001B680392002BB8BF4FF0FF33023405934D
:102A9000DFF8C8A0217803225046FDF781FB40B142
:102AA0004023A0EB0A0003FA00F0049B0343013427
:102AB000049314F8011B26488DF828100622FDF710
:102AC0006FFB002838D0234B1BBB039B073323F03D
:102AD000070308330393099B3344099367E70CFB0F
:102AE00002320C460120A5E7002301340593194664
:102AF0004FF00A0C204610F8012B303A092A03D96E
:102B0000002BC5D00591C3E70CFB0121044601232E
:102B1000F0E703AB00932A460F4B04A93846AFF306
:102B20000080421C0646D6D1AB895B063FF52CAF30
:102B300009981DB0BDE8F08F03AB00932A46064B01
:102B400004A9384600F07AF8EBE700BF74340008B7
:102B50007E34000800000000A92800087A3400082C
:102B60002DE9F047164699468A680B69DDF8208002
:102B70009342B8BF1346336091F8432007460C4692
:102B80000AB1013333602368990642BF33680233C8
:102B90003360256815F0060506D104F1190AE368CB
:102BA00032689B1AAB4226DC94F84320131E22683D
:102BB00018BF012392062BD404F14302494638463C
:102BC000C04701301ED02368E568326803F0060371
:102BD000042B08BFAD1AA36822690CBF25EAE5756E
:102BE00000259342C4BF9B1AED1800261A34B54243
:102BF0001AD1002008E00123524649463846C04712
:102C0000013003D14FF0FF30BDE8F0870135C6E752
:102C1000E1185A1C302081F84300224494F84510F2
:102C200082F843100233C7E701232246494638465B
:102C3000C0470130E6D00136D9E700002DE9FF4753
:102C40000C469146277E0C99782F80469A4604F1CF
:102C5000430207D8622F0AD8002F00F0D880582FDF
:102C600000F0A38004F1420684F842703AE0A7F134
:102C70006303152BF6D801A050F823F0D52C0008DB
:102C8000E92C0008652C0008652C0008652C00085C
:102C9000652C0008E92C0008652C0008652C00084C
:102CA000652C0008652C0008F52D0008192D00087A
:102CB000D72D0008652C0008652C0008172E000889
:102CC000652C0008192D0008652C0008652C0008EB
:102CD000DF2D00080B681A1D1B680A6004F142060C
:102CE00084F842300123A3E0256808682E0600F12D
:102CF00004030AD505680B60002D03DA2D236D420D
:102D000084F843305E480A2319E015F0400F056847
:102D10000B6018BF2DB2EFE70B682568181D08601F
:102D2000280601D51D6802E06906FBD51D885448B8
:102D30006F2F0CBF08230A23002184F84310666814
:102D4000A660002EA2BF216821F0040121600DB908
:102D5000002E4DD01646B5FBF3F103FB1157C75DAE
:102D600006F8017D2F46BB420D46F4D9082B0BD146
:102D70002368DF0708D5236961689942DEBF3023E5
:102D800006F8013C06F1FF36921B2261CDF800A047
:102D90004B4603AA21464046FFF7E2FE01304CD1E4
:102DA0004FF0FF3004B0BDE8F087354884F8457037
:102DB00023680E681F0656F8045B0E6014D5D90709
:102DC00044BF43F0200323601DB9236823F0200390
:102DD00023601023B0E7236843F0200323607823A7
:102DE000284884F84530E3E75E0648BFADB2E6E721
:102DF0001646BBE70B68266860691D1D0D60350629
:102E00001B6801D5186002E07106FBD5188000230D
:102E100023611646BAE70B681A1D0A601E686268CD
:102E200000213046FDF7BCF908B1801B6060636883
:102E30002361002384F84330A8E7236932464946DA
:102E40004046D0470130ABD023689B0713D4E068DD
:102E5000039B9842B8BF1846A4E70123324649466F
:102E60004046D04701309BD00135E36803995B1A97
:102E7000AB42F2DCEBE7002504F11906F5E700BFF1
:102E800085340008963400080A44914200F1FF336B
:102E900000D1704710B511F8014B03F8014F914272
:102EA000F9D110BD884210B501EB020402D9844269
:102EB000234607D8431EA14208D011F8012B03F87E
:102EC000012FF8E7024401468A4200D110BD13F8F1
:102ED000014D02F8014DF7E737B5002948D051F808
:102EE000043C0190002BA1F10404B8BFE41800F0E9
:102EF000D3F8204A01981368154633B9636014600B
:102F000003B0BDE8304000F0CDB8A3420BD9216832
:102F10006218934204BF1A685B68636004BF52186A
:102F200022602C60ECE71A465B680BB1A342FAD929
:102F300011685518A5420BD1246821445418A342A6
:102F40001160DDD11C685B68536021441160D7E7D4
:102F500002D90C230360D3E7256861198B4204BFB3
:102F600019685B68636004BF491921605460C7E752
:102F700003B030BD84010020F8B5CD1C25F0030559
:102F800008350C2D38BF0C25002D064601DBA94263
:102F900003D90C2333600020F8BD00F07DF82149EF
:102FA0000A6814469CB9204F3B6823B92146304635
:102FB00000F062F838602946304600F05DF8431CA6
:102FC00023D10C233360304600F06CF8E3E723682C
:102FD0005B1B17D40B2B03D923601C44256004E032
:102FE0006368A2420CBF0B605360304600F05AF891
:102FF00004F10B00231D20F00700C21ACCD01B1ACD
:10300000A350C9E722466468CCE7C41C24F003043B
:10301000A042E3D0211A304600F02EF80130DDD175
:10302000CFE700BF8401002088010020F8B50746E3
:1030300014460E4621B9BDE8F8401146FFF79CBF83
:1030400022B9FFF749FF25462846F8BD00F030F8C1
:10305000A0420FD221463846FFF78EFF05460028D2
:10306000F2D031462246FFF70FFF31463846FFF7D0
:1030700033FFE9E73546E7E738B5064D0023044658
:1030800008462B6000F01CF8431C02D12B6803B1EA
:10309000236038BD9C0100200148FFF703BC00BF3E
:1030A000940100200148FFF7FEBB00BF94010020FF
:1030B00051F8043C181F002BBCBF0B58C0187047B8
:1030C000044A05491368002B08BF0B4618441060DA
:1030D000184670478C010020A00100202DE9F04F18
:1030E000099E88468E46154604461946002B40F038
:1030F000C7804245B2FA82F746D94FB1C7F1200CDA
:1031000008FA07F320FA0CFCBD404CEA030EBC4061
:103110004FEA15481FFA85FCBEFBF8F9220C08FBA4
:1031200019E309FB0CFA42EA03439A4528D9EB1844
:1031300009F1FF3004D29A4502D9A9F102002B44CB
:10314000A3EB0A03A4B2B3FBF8F208FB123302FBB1
:103150000CFC44EA0344A44514D92C1902F1FF33B2
:1031600003D2A44501D9931E2C44A4EB0C0443EADA
:1031700000401EB1FC40002334607360BDE8F08F56
:103180004846DDE71346F0E702B9FFDE8FBBA8EB48
:10319000020301214FEA154EAAB2B3FBFEFC200C3C
:1031A0000EFB1C330CFB02F840EA0343984563D93D
:1031B000EB180CF1FF3004D2984502D9ACF10200B3
:1031C0002B44A3EB0803A4B2B3FBFEFC0EFB1C33A1
:1031D0000CFB02F244EA0344A2424FD92C190CF131
:1031E000FF3304D2A24202D9ACF102032C44A41A48
:1031F000BDE7C7F1200C28FA0CF908FA07F320FA0A
:103200000CFCBD404CEA03024FEA154EABB2B9FBD1
:10321000FEFC110C0EFB1C900CFB03F841EA004075
:10322000804504FA07F423D928180CF1FF3104D2A1
:10323000804502D9ACF102012844A0EB080092B20B
:10324000B0FBFEFC0EFB1C000CFB03F842EA004343
:1032500098450FD9EB180CF1FF3204D2984502D9EA
:10326000ACF102022B44A3EB080342EA014191E7CF
:103270006146E2E76246F6E76046A2E76346B6E7E4
:10328000434505D90EB1C6E900080021084675E797
:10329000B3FA83FCBCF1000F10D1434501D3824245
:1032A0000AD8841A68EB030301209E46002E68D0DA
:1032B000C6E9004E002161E76046F7E7CCF1200E39
:1032C00003FA0CF322FA0EF41C4320FA0EF108FA6A
:1032D0000CF328FA0EFB19434FEA144902FA0CF5D5
:1032E000BBFBF9F8A3B209FB18BB0A0C08FB03FAF5
:1032F00042EA0B42924500FA0CF73ED9A21808F1B7
:10330000FF3004D2924502D9A8F102002244A2EB78
:103310000A0289B2B2FBF9F809FB182208FB03F391
:1033200041EA024293422AD9A21808F1FF3104D29D
:10333000934202D9A8F10201224441EA0040A0FBD5
:103340000598D21A42454B46414602D306D14F4515
:1033500004D2B9EB050368EB040101388EB1FC1A05
:1033600062EB010707FA0EFE24FA0CF34EEA0303A0
:1033700027FA0CF7C6E900379CE74046C7E7414605
:10338000DBE73146FAE60000F8B500BFF8BC08BC40
:103390009E467047F8B500BFF8BC08BC9E46704713
:1033A0001B1800001C01000073746172740A000095
:1033B0006572726F72310A006572726F72320A0042
:1033C0006572726F72330A00253032782000000077
:1033D0002D2D20000A000000536C656570696E6732
:1033E00020666F722035730A000000006572726FEC
:1033F00072340A006572726F72350A006128252BDB
:10340000366420252B366420252B36642920742829
:10341000252B366429206728252B366420252B365A
:103420006420252B3664290A0000000000000000FB
:103430000000000001020304060708090000000064
:1034400001020304A0860100400D0300801A06005B
:1034500000350C0040420F0080841E0000093D0032
:1034600000127A000024F40000366E010048E801E2
:10347000006CDC02232D302B2000686C4C0065664C
:1034800067454647003031323334353637383941B5
:1034900042434445460030313233343536373839CB
:0834A0006162636465660000CF
:0834A80034FCFF7F010000006D
:0834B000990200080000000071
:0834B80075020008000000008D
:1034C000010000001000000000093D001000002075
:1034D00000000000000000000000000000000000EC
:1034E00000000000000000000000000000000000DC
:1034F00000000000000000000000000000000000CC
:1035000000000000000000000000000000000000BB
:1035100000000000000000000000000000000000AB
:10352000000000000000000000000000000000009B
:04000005080027B90F
:00000001FF
